:100000000C946B000C9488000C9488000C9488006D
:100010000C9488000C9488000C9488000C94880040
:100020000C9488000C9488000C9488000C94880030
:100030000C9488000C9488000C9488000C94880020
:100040000C9488000C9488000C9488000C94880010
:100050000C94880007634236B79BD8A71A396856B4
:1000600018AEBAAB558C1D3CB7CC5763BD6DEDFDDA
:10007000753EF6177231BF000000803F0800000097
:10008000BE922449123EABAAAA2ABECDCCCC4C3E8D
:1000900000000080BEABAAAAAA3E00000000BF007C
:1000A0000000803F0000000000084178D3BB438778
:1000B000D1133D190E3CC3BD4282AD2B3E68EC828C
:1000C00076BED98FE1A93E4C80EFFFBE01C4FF7F11
:1000D0003F000000000011241FBECFE5D4E0DEBFCA
:1000E000CDBF10E0A0E6B0E0E8E5FAE002C0059080
:1000F0000D92A836B107D9F720E0A8E6B0E001C01C
:100100001D92A936B207E1F70E9458010C942A0506
:100110000C9400009DEC899F912D11249695969545
:10012000969520E1929FA0011124990F292F220F6B
:10013000220F920F891B842B089511B861B1617051
:10014000626070E080E090E00E94AC029B01AC0134
:1001500060E070E080E890E40E9438039B01AC010D
:100160000E949D019B01AC0160E070E080E892E498
:100170000E9409020E947B0260B9089594EA96BF2A
:1001800006B607FEFDCF83B984E886BF06B607FE34
:10019000FDCF089594EA96BF06B607FEFDCF83B95A
:1001A00084E886BF06B607FEFDCF089584E986BFC2
:1001B00086B708950E948A0083B984E886BF06B690
:1001C00007FEFDCF089584EC86BF86B783B10895FE
:1001D000982F907F9C5F9BBBEFECF7E03197F1F796
:1001E00000C000009BB394509BBBF0E18F9FC00107
:1001F00011248C5F8BBB8FEC97E00197F1F700C067
:1002000000008BB384508BBB089582E00E94E8000D
:1002100088E20E94E80086E00E94E80081E00E94F7
:10022000E8008CE00E94E8000895982F907F9B5F83
:100230009BBBEFECF7E03197F1F700C000009BB3F8
:1002400094509BBBF0E18F9FC00111248B5F8BBB4F
:100250008FEC97E00197F1F700C000008BB384505A
:100260008BBB0895CF93C82F82958F70806390E0E9
:100270000E941501CF708C2F806390E00E941501C1
:10028000CF9108950F931F93CF93DF938C01C0E01C
:10029000D0E003C00E9415012196F801EC0FFD1F6C
:1002A00080818111F7CFDF91CF911F910F91089538
:1002B00078948FEF8ABB14BA85BB0E94050180E851
:1002C0000E94E80080E690E00E94420180EC0E94DB
:1002D000E8000E949D0080EA0E94BE0080E20E9429
:1002E000DA008DE20E94DA0082E60E94DA000E94C3
:1002F000D6002FEF89E698E1215080409040E1F749
:1003000000C0000080EA0E94BE0080E20E94DA0085
:100310008DE20E94DA0081EA0E94CA000E94E30096
:10032000809368000E94D60080EC0E94E8008091D3
:1003300068000E943201FFCF5058BB27AA270E94B5
:10034000B4010C94FE020E94F00238F00E94F70201
:1003500020F039F49F3F19F426F40C94ED020EF4CA
:10036000E095E7FB0C94E702E92F0E940F0358F396
:10037000BA17620773078407950720F079F4A6F58A
:100380000C9431030EF4E0950B2EBA2FA02D0B0127
:10039000B90190010C01CA01A0011124FF27591BCA
:1003A00099F0593F50F4503E68F11A16F040A22FD0
:1003B000232F342F4427585FF3CF46953795279541
:1003C000A795F0405395C9F77EF41F16BA0B620B40
:1003D000730B840BBAF09150A1F0FF0FBB1F661F87
:1003E000771F881FC2F70EC0BA0F621F731F841FCA
:1003F00048F4879577956795B795F7959E3F08F0F0
:10040000B0CF9395880F08F09927EE0F97958795B1
:1004100008950E941D020C94FE020E94F70258F0FB
:100420000E94F00240F029F45F3F29F00C94E702AB
:1004300051110C9432030C94ED020E940F0368F3E7
:100440009923B1F3552391F3951B550BBB27AA278D
:1004500062177307840738F09F5F5F4F220F331FC7
:10046000441FAA1FA9F335D00E2E3AF0E0E832D08F
:1004700091505040E695001CCAF72BD0FE2F29D092
:10048000660F771F881FBB1F261737074807AB0764
:10049000B0E809F0BB0B802DBF01FF2793585F4FD9
:1004A0003AF09E3F510578F00C94E7020C94320329
:1004B0005F3FE4F3983ED4F3869577956795B795BB
:1004C000F7959F5FC9F7880F911D9695879597F9C6
:1004D0000895E1E0660F771F881FBB1F621773073F
:1004E0008407BA0720F0621B730B840BBA0BEE1F54
:1004F00088F7E09508950E94170388F09F5798F0B9
:10050000B92F9927B751B0F0E1F0660F771F881F18
:10051000991F1AF0BA95C9F714C0B13091F00E9432
:100520003103B1E008950C943103672F782F8827A9
:10053000B85F39F0B93FCCF3869577956795B39559
:10054000D9F73EF490958095709561957F4F8F4FC8
:100550009F4F0895E89409C097FB3EF490958095CD
:10056000709561957F4F8F4F9F4F9923A9F0F92F79
:1005700096E9BB279395F695879577956795B795F7
:10058000F111F8CFFAF4BB0F11F460FF1BC06F5FDD
:100590007F4F8F4F9F4F16C0882311F096E911C0EF
:1005A000772321F09EE8872F762F05C0662371F010
:1005B00096E8862F70E060E02AF09A95660F771F24
:1005C000881FDAF7880F9695879597F9089597F918
:1005D0009F6780E870E060E008959FEF80EC0895E9
:1005E00000240A9416161706180609060895002412
:1005F0000A9412161306140605060895092E03948C
:10060000000C11F4882352F0BB0F40F4BF2B11F4FF
:1006100060FF04C06F5F7F4F8F4F9F4F089557FD5E
:100620009058440F551F59F05F3F71F04795880F60
:1006300097FB991F61F09F3F79F0879508951216F7
:1006400013061406551FF2CF4695F1DF08C01616A3
:1006500017061806991FF1CF869571056105089454
:100660000895E894BB2766277727CB0197F908956B
:10067000FA01EE0FFF1F309621053105A1F161153A
:10068000710561F48038BFE39B0749F168949038A5
:10069000810561F08038BFEF9B0741F099234AF54F
:1006A000FF3FE1053105210519F1E8940894E7952C
:1006B000D901AA2329F4AB2FBE2FF85FD0F310C0C5
:1006C000FF5F70F4A695E0F7F73950F019F0FF3AA4
:1006D00038F49F779F930DD00F9007FC90580895A2
:1006E00046F00C94ED0260E070E080E89FE308952E
:1006F0004FE79F775F934F933F932F930E9433046D
:100700002F913F914F915F910E94AF040C94900301
:1007100029F416F00C94E7020C9431030C94ED02CA
:100720000E941703A8F39638A0F707F80F92E894F1
:100730002BE33AEA48EB5FE70E94C5040F920F9261
:100740000F924DB75EB70F920E947B04E4E5F0E094
:100750000E94C2034F915F91EF91FF91E595EE1FCB
:10076000FF1F49F0FE57E0684427EE0F441FFA953B
:10077000E1F74195550B0E94F5030F9007FE0C948D
:10078000E9030895DF93CF931F930F93FF92EF92A6
:10079000DF927B018C01689406C0DA2EEF010E9483
:1007A000C204FE01E894A59125913591459155919A
:1007B000A6F3EF010E94B401FE019701A801DA94AB
:1007C00069F7DF90EF90FF900F911F91CF91DF912C
:1007D00008959B01AC0160E070E080E89FE30C9419
:1007E00009020C94E7020C941C050E941703D8F32D
:1007F0009923C9F3940F511DA3F39150504094F0E5
:1008000059F0882332F0660F771F881F91505040AF
:10081000C1F79E3F51052CF7880F911D969587953E
:1008200097F908955F3FACF0983E9CF0BB27869502
:1008300077956795B79508F4B1609395C1F7BB0FAD
:1008400058F711F460FFE8CF6F5F7F4F8F4F9F4FD6
:10085000E3CF0C94320316F00C941C050C94ED02BB
:1008600068940C94E7020E941703A8F39923C1F33C
:10087000AEF3DF93CF931F930F93FF92C92FDD2722
:1008800088232AF02197660F771F881FDAF720E068
:1008900030E040E85FEB9FE3883920F0803E38F09D
:1008A00021968F770E949D01ECE7F0E004C00E9442
:1008B0009D01E9EAF0E00E94C2038B01BE01EC0158
:1008C000FB2E6F5771097595771F880B990B0E9446
:1008D000AC0228E132E741E35FE30E94C204AF2D9E
:1008E0009801AE01FF900F911F91CF91DF910E946F
:1008F000B4010C94FE02FA01DC01AA0FBB1F9B019C
:10090000AC01BF5728F4222733274427507820C052
:10091000B75190F4AB2F0024469537952795011CCD
:10092000A395D2F3002071F0220F331F441FB3951B
:10093000DAF30ED00C949C0161307105A0E88A07AF
:10094000B94630F49B01AC01662777278827907859
:10095000309621F0208331834283538308950E948F
:10096000C2040C94FE020E94F00238F00E94F702CA
:1009700020F0952311F00C94E7020C94ED02112461
:100980000C9432030E940F0370F3959FC1F3950FEF
:1009900050E0551F629FF001729FBB27F00DB11D03
:1009A000639FAA27F00DB11DAA1F649F6627B00D93
:1009B000A11D661F829F2227B00DA11D621F739F7C
:1009C000B00DA11D621F839FA00D611D221F749F8A
:1009D0003327A00D611D231F849F600D211D822FD1
:1009E000762F6A2F11249F5750409AF0F1F08823F8
:1009F0004AF0EE0FFF1FBB1F661F771F881F915025
:100A00005040A9F79E3F510580F00C94E7020C94EA
:100A100032035F3FE4F3983ED4F38695779567956C
:100A2000B795F795E7959F5FC1F7FE2B880F911D4E
:100A30009695879597F908959F3F31F0915020F44E
:100A4000879577956795B795880F911D96958795AA
:080A500097F90895F894FFCF17
:080A58004153484953480000D6
:00000001FF
